{
  "contractName": "Election",
  "abi": [
    {
      "inputs": [],
      "stateMutability": "nonpayable",
      "type": "constructor"
    },
    {
      "anonymous": false,
      "inputs": [
        {
          "indexed": false,
          "internalType": "uint256",
          "name": "indexed_candidateId",
          "type": "uint256"
        }
      ],
      "name": "votedEvent",
      "type": "event"
    },
    {
      "inputs": [
        {
          "internalType": "uint256",
          "name": "",
          "type": "uint256"
        }
      ],
      "name": "candidates",
      "outputs": [
        {
          "internalType": "uint256",
          "name": "id",
          "type": "uint256"
        },
        {
          "internalType": "string",
          "name": "CfirstName",
          "type": "string"
        },
        {
          "internalType": "string",
          "name": "ClastName",
          "type": "string"
        },
        {
          "internalType": "string",
          "name": "CidNumber",
          "type": "string"
        },
        {
          "internalType": "uint256",
          "name": "voteCount",
          "type": "uint256"
        }
      ],
      "stateMutability": "view",
      "type": "function",
      "constant": true
    },
    {
      "inputs": [],
      "name": "candidatesCount",
      "outputs": [
        {
          "internalType": "uint256",
          "name": "",
          "type": "uint256"
        }
      ],
      "stateMutability": "view",
      "type": "function",
      "constant": true
    },
    {
      "inputs": [],
      "name": "manager",
      "outputs": [
        {
          "internalType": "address",
          "name": "",
          "type": "address"
        }
      ],
      "stateMutability": "view",
      "type": "function",
      "constant": true
    },
    {
      "inputs": [
        {
          "internalType": "uint256",
          "name": "",
          "type": "uint256"
        }
      ],
      "name": "users",
      "outputs": [
        {
          "internalType": "string",
          "name": "firstName",
          "type": "string"
        },
        {
          "internalType": "string",
          "name": "lastName",
          "type": "string"
        },
        {
          "internalType": "string",
          "name": "idNumber",
          "type": "string"
        },
        {
          "internalType": "string",
          "name": "email",
          "type": "string"
        },
        {
          "internalType": "string",
          "name": "password",
          "type": "string"
        },
        {
          "internalType": "address",
          "name": "add",
          "type": "address"
        }
      ],
      "stateMutability": "view",
      "type": "function",
      "constant": true
    },
    {
      "inputs": [],
      "name": "usersCount",
      "outputs": [
        {
          "internalType": "uint256",
          "name": "",
          "type": "uint256"
        }
      ],
      "stateMutability": "view",
      "type": "function",
      "constant": true
    },
    {
      "inputs": [
        {
          "internalType": "address",
          "name": "",
          "type": "address"
        }
      ],
      "name": "voters",
      "outputs": [
        {
          "internalType": "bool",
          "name": "",
          "type": "bool"
        }
      ],
      "stateMutability": "view",
      "type": "function",
      "constant": true
    },
    {
      "inputs": [
        {
          "internalType": "string",
          "name": "_CfirstName",
          "type": "string"
        },
        {
          "internalType": "string",
          "name": "_ClastName",
          "type": "string"
        },
        {
          "internalType": "string",
          "name": "_CidNumber",
          "type": "string"
        }
      ],
      "name": "addCandidate",
      "outputs": [],
      "stateMutability": "nonpayable",
      "type": "function"
    },
    {
      "inputs": [
        {
          "internalType": "uint256",
          "name": "_candidateId",
          "type": "uint256"
        }
      ],
      "name": "vote",
      "outputs": [],
      "stateMutability": "nonpayable",
      "type": "function"
    },
    {
      "inputs": [
        {
          "internalType": "string",
          "name": "_firstName",
          "type": "string"
        },
        {
          "internalType": "string",
          "name": "_lastName",
          "type": "string"
        },
        {
          "internalType": "string",
          "name": "_idNumber",
          "type": "string"
        },
        {
          "internalType": "string",
          "name": "_email",
          "type": "string"
        },
        {
          "internalType": "string",
          "name": "_password",
          "type": "string"
        }
      ],
      "name": "addUser",
      "outputs": [],
      "stateMutability": "nonpayable",
      "type": "function"
    }
  ],
  "bytecode": "0x608060405234801561001057600080fd5b50336000806101000a81548173ffffffffffffffffffffffffffffffffffffffff021916908373ffffffffffffffffffffffffffffffffffffffff160217905550611497806100606000396000f3fe608060405234801561001057600080fd5b50600436106100935760003560e01c8063481c6a7511610066578063481c6a75146104e55780636ba13a8214610519578063a3ec138d14610537578063ad71f8dc14610591578063b37a3d821461077a57610093565b80630121b93f146100985780632d35a8a2146100c65780633477ee2e146100e4578063365b98b214610271575b600080fd5b6100c4600480360360208110156100ae57600080fd5b8101908080359060200190929190505050610a91565b005b6100ce610bba565b6040518082815260200191505060405180910390f35b610110600480360360208110156100fa57600080fd5b8101908080359060200190929190505050610bc0565b60405180868152602001806020018060200180602001858152602001848103845288818151815260200191508051906020019080838360005b83811015610164578082015181840152602081019050610149565b50505050905090810190601f1680156101915780820380516001836020036101000a031916815260200191505b50848103835287818151815260200191508051906020019080838360005b838110156101ca5780820151818401526020810190506101af565b50505050905090810190601f1680156101f75780820380516001836020036101000a031916815260200191505b50848103825286818151815260200191508051906020019080838360005b83811015610230578082015181840152602081019050610215565b50505050905090810190601f16801561025d5780820380516001836020036101000a031916815260200191505b509850505050505050505060405180910390f35b61029d6004803603602081101561028757600080fd5b8101908080359060200190929190505050610dbe565b6040518080602001806020018060200180602001806020018773ffffffffffffffffffffffffffffffffffffffff16815260200186810386528c818151815260200191508051906020019080838360005b838110156103095780820151818401526020810190506102ee565b50505050905090810190601f1680156103365780820380516001836020036101000a031916815260200191505b5086810385528b818151815260200191508051906020019080838360005b8381101561036f578082015181840152602081019050610354565b50505050905090810190601f16801561039c5780820380516001836020036101000a031916815260200191505b5086810384528a818151815260200191508051906020019080838360005b838110156103d55780820151818401526020810190506103ba565b50505050905090810190601f1680156104025780820380516001836020036101000a031916815260200191505b50868103835289818151815260200191508051906020019080838360005b8381101561043b578082015181840152602081019050610420565b50505050905090810190601f1680156104685780820380516001836020036101000a031916815260200191505b50868103825288818151815260200191508051906020019080838360005b838110156104a1578082015181840152602081019050610486565b50505050905090810190601f1680156104ce5780820380516001836020036101000a031916815260200191505b509b50505050505050505050505060405180910390f35b6104ed611112565b604051808273ffffffffffffffffffffffffffffffffffffffff16815260200191505060405180910390f35b610521611136565b6040518082815260200191505060405180910390f35b6105796004803603602081101561054d57600080fd5b81019080803573ffffffffffffffffffffffffffffffffffffffff16906020019092919050505061113c565b60405180821515815260200191505060405180910390f35b610778600480360360608110156105a757600080fd5b81019080803590602001906401000000008111156105c457600080fd5b8201836020820111156105d657600080fd5b803590602001918460018302840111640100000000831117156105f857600080fd5b91908080601f016020809104026020016040519081016040528093929190818152602001838380828437600081840152601f19601f8201169050808301925050505050505091929192908035906020019064010000000081111561065b57600080fd5b82018360208201111561066d57600080fd5b8035906020019184600183028401116401000000008311171561068f57600080fd5b91908080601f016020809104026020016040519081016040528093929190818152602001838380828437600081840152601f19601f820116905080830192505050505050509192919290803590602001906401000000008111156106f257600080fd5b82018360208201111561070457600080fd5b8035906020019184600183028401116401000000008311171561072657600080fd5b91908080601f016020809104026020016040519081016040528093929190818152602001838380828437600081840152601f19601f82011690508083019250505050505050919291929050505061115c565b005b610a8f600480360360a081101561079057600080fd5b81019080803590602001906401000000008111156107ad57600080fd5b8201836020820111156107bf57600080fd5b803590602001918460018302840111640100000000831117156107e157600080fd5b91908080601f016020809104026020016040519081016040528093929190818152602001838380828437600081840152601f19601f8201169050808301925050505050505091929192908035906020019064010000000081111561084457600080fd5b82018360208201111561085657600080fd5b8035906020019184600183028401116401000000008311171561087857600080fd5b91908080601f016020809104026020016040519081016040528093929190818152602001838380828437600081840152601f19601f820116905080830192505050505050509192919290803590602001906401000000008111156108db57600080fd5b8201836020820111156108ed57600080fd5b8035906020019184600183028401116401000000008311171561090f57600080fd5b91908080601f016020809104026020016040519081016040528093929190818152602001838380828437600081840152601f19601f8201169050808301925050505050505091929192908035906020019064010000000081111561097257600080fd5b82018360208201111561098457600080fd5b803590602001918460018302840111640100000000831117156109a657600080fd5b91908080601f016020809104026020016040519081016040528093929190818152602001838380828437600081840152601f19601f82011690508083019250505050505050919291929080359060200190640100000000811115610a0957600080fd5b820183602082011115610a1b57600080fd5b80359060200191846001830284011164010000000083111715610a3d57600080fd5b91908080601f016020809104026020016040519081016040528093929190818152602001838380828437600081840152601f19601f820116905080830192505050505050509192919290505050611278565b005b600160003373ffffffffffffffffffffffffffffffffffffffff1673ffffffffffffffffffffffffffffffffffffffff16815260200190815260200160002060009054906101000a900460ff1615610ae857600080fd5b600081118015610afa57506003548111155b610b0357600080fd5b60018060003373ffffffffffffffffffffffffffffffffffffffff1673ffffffffffffffffffffffffffffffffffffffff16815260200190815260200160002060006101000a81548160ff02191690831515021790555060026000828152602001908152602001600020600401600081548092919060010191905055507ffff3c900d938d21d0990d786e819f29b8d05c1ef587b462b939609625b684b16816040518082815260200191505060405180910390a150565b60035481565b6002602052806000526040600020600091509050806000015490806001018054600181600116156101000203166002900480601f016020809104026020016040519081016040528092919081815260200182805460018160011615610100020316600290048015610c725780601f10610c4757610100808354040283529160200191610c72565b820191906000526020600020905b815481529060010190602001808311610c5557829003601f168201915b505050505090806002018054600181600116156101000203166002900480601f016020809104026020016040519081016040528092919081815260200182805460018160011615610100020316600290048015610d105780601f10610ce557610100808354040283529160200191610d10565b820191906000526020600020905b815481529060010190602001808311610cf357829003601f168201915b505050505090806003018054600181600116156101000203166002900480601f016020809104026020016040519081016040528092919081815260200182805460018160011615610100020316600290048015610dae5780601f10610d8357610100808354040283529160200191610dae565b820191906000526020600020905b815481529060010190602001808311610d9157829003601f168201915b5050505050908060040154905085565b6004602052806000526040600020600091509050806000018054600181600116156101000203166002900480601f016020809104026020016040519081016040528092919081815260200182805460018160011615610100020316600290048015610e6a5780601f10610e3f57610100808354040283529160200191610e6a565b820191906000526020600020905b815481529060010190602001808311610e4d57829003601f168201915b505050505090806001018054600181600116156101000203166002900480601f016020809104026020016040519081016040528092919081815260200182805460018160011615610100020316600290048015610f085780601f10610edd57610100808354040283529160200191610f08565b820191906000526020600020905b815481529060010190602001808311610eeb57829003601f168201915b505050505090806002018054600181600116156101000203166002900480601f016020809104026020016040519081016040528092919081815260200182805460018160011615610100020316600290048015610fa65780601f10610f7b57610100808354040283529160200191610fa6565b820191906000526020600020905b815481529060010190602001808311610f8957829003601f168201915b505050505090806003018054600181600116156101000203166002900480601f0160208091040260200160405190810160405280929190818152602001828054600181600116156101000203166002900480156110445780601f1061101957610100808354040283529160200191611044565b820191906000526020600020905b81548152906001019060200180831161102757829003601f168201915b505050505090806004018054600181600116156101000203166002900480601f0160208091040260200160405190810160405280929190818152602001828054600181600116156101000203166002900480156110e25780601f106110b7576101008083540402835291602001916110e2565b820191906000526020600020905b8154815290600101906020018083116110c557829003601f168201915b5050505050908060050160009054906101000a900473ffffffffffffffffffffffffffffffffffffffff16905086565b60008054906101000a900473ffffffffffffffffffffffffffffffffffffffff1681565b60055481565b60016020528060005260406000206000915054906101000a900460ff1681565b60008054906101000a900473ffffffffffffffffffffffffffffffffffffffff1673ffffffffffffffffffffffffffffffffffffffff163373ffffffffffffffffffffffffffffffffffffffff16146111b457600080fd5b6003600081548092919060010191905055506040518060a001604052806003548152602001848152602001838152602001828152602001600081525060026000600354815260200190815260200160002060008201518160000155602082015181600101908051906020019061122b9291906113c4565b5060408201518160020190805190602001906112489291906113c4565b5060608201518160030190805190602001906112659291906113c4565b5060808201518160040155905050505050565b6005600081548092919060010191905055506040518060c001604052808681526020018581526020018481526020018381526020018281526020013373ffffffffffffffffffffffffffffffffffffffff1681525060046000600554815260200190815260200160002060008201518160000190805190602001906112fe9291906113c4565b50602082015181600101908051906020019061131b9291906113c4565b5060408201518160020190805190602001906113389291906113c4565b5060608201518160030190805190602001906113559291906113c4565b5060808201518160040190805190602001906113729291906113c4565b5060a08201518160050160006101000a81548173ffffffffffffffffffffffffffffffffffffffff021916908373ffffffffffffffffffffffffffffffffffffffff1602179055509050505050505050565b828054600181600116156101000203166002900490600052602060002090601f016020900481019282601f1061140557805160ff1916838001178555611433565b82800160010185558215611433579182015b82811115611432578251825591602001919060010190611417565b5b5090506114409190611444565b5090565b5b8082111561145d576000816000905550600101611445565b509056fea26469706673582212205a75f5c336d769c3749f2a4810cbfe9905d54c702ef81cfca87ea28fe652c1f464736f6c63430007020033",
  "immutableReferences": {},
  "source": "// SPDX-License-Identifier: GPL-3.0\n\npragma solidity >=0.5.0 <0.9.0;\n\ncontract Election{\n\n    address public manager;\n\n    struct Candidate {\n        uint id;\n        string CfirstName;\n        string ClastName;\n        string CidNumber;\n        uint voteCount;\n    }\n\n    mapping (address => bool) public voters;\n\n    mapping (uint => Candidate) public candidates;\n\n    uint public candidatesCount;\n\n    event votedEvent (\n        uint indexed_candidateId\n    );\n\n\n    constructor () {\n        manager = msg.sender;\n    }\n\n    function addCandidate (string memory _CfirstName, string memory _ClastName, string memory _CidNumber) public restricted{\n        candidatesCount++;\n        candidates[candidatesCount] = Candidate(candidatesCount, _CfirstName, _ClastName, _CidNumber, 0);\n    }\n\n    modifier restricted () {\n        require(msg.sender == manager);\n        _;\n    }\n\n\n    function vote (uint _candidateId) public {\n        require(!voters[msg.sender]);\n\n        require(_candidateId > 0 && _candidateId <= candidatesCount);\n\n        voters[msg.sender] = true;\n\n        candidates[_candidateId].voteCount ++;\n\n        //uint candidateId = _candidateId;\n\n        emit votedEvent(_candidateId);\n    }\n\n    //users\n    //register\n    struct User {\n        string firstName;\n        string lastName;\n        string idNumber;\n        string email;\n        string password;\n        address add;\n    }\n\n    mapping (uint => User) public users;\n\n    uint public usersCount;\n\n    function addUser (string memory _firstName, string memory _lastName, string memory _idNumber, string memory _email, string memory _password) public{\n        usersCount++;\n        users[usersCount] = User(_firstName, _lastName, _idNumber, _email, _password, msg.sender);\n    }\n\n\n\n\n}",
  "sourcePath": "D:\\Materias de la UAGRM\\Semestre 2-2023\\Taller de Grado\\proyecto_final\\blockchain-voting-system\\contracts\\Election.sol",
  "compiler": {
    "name": "solc",
    "version": "0.7.2+commit.51b20bc0.Emscripten.clang"
  },
  "schemaVersion": "3.4.16",
  "updatedAt": "2023-12-07T22:58:11.148Z",
  "networkType": "ethereum",
  "devdoc": {
    "kind": "dev",
    "methods": {},
    "version": 1
  },
  "userdoc": {
    "kind": "user",
    "methods": {},
    "version": 1
  }
}